{
  "_format": "hh-sol-artifact-1",
  "contractName": "Counter",
  "sourceName": "contracts/Counter.sol",
  "abi": [
    {
      "inputs": [
        {
          "internalType": "address",
          "name": "",
          "type": "address"
        }
      ],
      "name": "counters",
      "outputs": [
        {
          "internalType": "uint256",
          "name": "",
          "type": "uint256"
        }
      ],
      "stateMutability": "view",
      "type": "function"
    },
    {
      "inputs": [
        {
          "internalType": "address",
          "name": "_address",
          "type": "address"
        }
      ],
      "name": "getCounter",
      "outputs": [
        {
          "internalType": "uint256",
          "name": "",
          "type": "uint256"
        }
      ],
      "stateMutability": "view",
      "type": "function"
    },
    {
      "inputs": [],
      "name": "increment",
      "outputs": [],
      "stateMutability": "nonpayable",
      "type": "function"
    }
  ],
  "bytecode": "0x6080604052348015600f57600080fd5b506102d78061001f6000396000f3fe608060405234801561001057600080fd5b50600436106100415760003560e01c8063be65ab8c14610046578063d09de08a14610076578063f07ec37314610080575b600080fd5b610060600480360381019061005b91906101c9565b6100b0565b60405161006d919061020f565b60405180910390f35b61007e6100c8565b005b61009a600480360381019061009591906101c9565b61011e565b6040516100a7919061020f565b60405180910390f35b60006020528060005260406000206000915090505481565b6000803373ffffffffffffffffffffffffffffffffffffffff1673ffffffffffffffffffffffffffffffffffffffff168152602001908152602001600020600081548092919061011790610259565b9190505550565b60008060008373ffffffffffffffffffffffffffffffffffffffff1673ffffffffffffffffffffffffffffffffffffffff168152602001908152602001600020549050919050565b600080fd5b600073ffffffffffffffffffffffffffffffffffffffff82169050919050565b60006101968261016b565b9050919050565b6101a68161018b565b81146101b157600080fd5b50565b6000813590506101c38161019d565b92915050565b6000602082840312156101df576101de610166565b5b60006101ed848285016101b4565b91505092915050565b6000819050919050565b610209816101f6565b82525050565b60006020820190506102246000830184610200565b92915050565b7f4e487b7100000000000000000000000000000000000000000000000000000000600052601160045260246000fd5b6000610264826101f6565b91507fffffffffffffffffffffffffffffffffffffffffffffffffffffffffffffffff82036102965761029561022a565b5b60018201905091905056fea26469706673582212209af8cdd249c43bf88545735d8e98c018622d8d48444f3becba8da4a7d654651164736f6c634300081c0033",
  "linkReferences": {},
  "deployedLinkReferences": {}
}