{
  "_format": "hh-sol-artifact-1",
  "contractName": "EIP712MetaTransaction",
  "sourceName": "contracts/EIP712MetaTransaction.sol",
  "abi": [
    {
      "inputs": [
        {
          "internalType": "string",
          "name": "name",
          "type": "string"
        },
        {
          "internalType": "string",
          "name": "version",
          "type": "string"
        }
      ],
      "stateMutability": "nonpayable",
      "type": "constructor"
    },
    {
      "anonymous": false,
      "inputs": [
        {
          "indexed": false,
          "internalType": "address",
          "name": "userAddress",
          "type": "address"
        },
        {
          "indexed": false,
          "internalType": "address",
          "name": "targetAddress",
          "type": "address"
        },
        {
          "indexed": false,
          "internalType": "address",
          "name": "relayerAddress",
          "type": "address"
        },
        {
          "indexed": false,
          "internalType": "bytes",
          "name": "functionSignature",
          "type": "bytes"
        }
      ],
      "name": "MetaTransactionExecuted",
      "type": "event"
    },
    {
      "inputs": [
        {
          "internalType": "address",
          "name": "userAddress",
          "type": "address"
        },
        {
          "internalType": "address",
          "name": "targetContractAddress",
          "type": "address"
        },
        {
          "internalType": "bytes",
          "name": "functionSignature",
          "type": "bytes"
        },
        {
          "internalType": "bytes32",
          "name": "sigR",
          "type": "bytes32"
        },
        {
          "internalType": "bytes32",
          "name": "sigS",
          "type": "bytes32"
        },
        {
          "internalType": "uint8",
          "name": "sigV",
          "type": "uint8"
        }
      ],
      "name": "executeMetaTransaction",
      "outputs": [
        {
          "internalType": "bytes",
          "name": "",
          "type": "bytes"
        }
      ],
      "stateMutability": "payable",
      "type": "function"
    },
    {
      "inputs": [
        {
          "internalType": "address",
          "name": "user",
          "type": "address"
        }
      ],
      "name": "getNonce",
      "outputs": [
        {
          "internalType": "uint256",
          "name": "nonce",
          "type": "uint256"
        }
      ],
      "stateMutability": "view",
      "type": "function"
    }
  ],
  "bytecode": "0x608060405234801561001057600080fd5b5060405161123a38038061123a83398181016040528101906100329190610229565b81816040518060800160405280605281526020016111e8605291398051906020012082805190602001208280519060200120306100736100ac60201b60201c565b604051602001610087959493929190610314565b6040516020818303038152906040528051906020012060008190555050505050610367565b600046905090565b6000604051905090565b600080fd5b600080fd5b600080fd5b600080fd5b6000601f19601f8301169050919050565b7f4e487b7100000000000000000000000000000000000000000000000000000000600052604160045260246000fd5b61011b826100d2565b810181811067ffffffffffffffff8211171561013a576101396100e3565b5b80604052505050565b600061014d6100b4565b90506101598282610112565b919050565b600067ffffffffffffffff821115610179576101786100e3565b5b610182826100d2565b9050602081019050919050565b60005b838110156101ad578082015181840152602081019050610192565b60008484015250505050565b60006101cc6101c78461015e565b610143565b9050828152602081018484840111156101e8576101e76100cd565b5b6101f384828561018f565b509392505050565b600082601f8301126102105761020f6100c8565b5b81516102208482602086016101b9565b91505092915050565b600080604083850312156102405761023f6100be565b5b600083015167ffffffffffffffff81111561025e5761025d6100c3565b5b61026a858286016101fb565b925050602083015167ffffffffffffffff81111561028b5761028a6100c3565b5b610297858286016101fb565b9150509250929050565b6000819050919050565b6102b4816102a1565b82525050565b600073ffffffffffffffffffffffffffffffffffffffff82169050919050565b60006102e5826102ba565b9050919050565b6102f5816102da565b82525050565b6000819050919050565b61030e816102fb565b82525050565b600060a08201905061032960008301886102ab565b61033660208301876102ab565b61034360408301866102ab565b61035060608301856102ec565b61035d6080830184610305565b9695505050505050565b610e72806103766000396000f3fe6080604052600436106100295760003560e01c80632d0335ab1461002e578063a9cae6531461006b575b600080fd5b34801561003a57600080fd5b506100556004803603810190610050919061060c565b61009b565b6040516100629190610652565b60405180910390f35b61008560048036038101906100809190610822565b6100e4565b604051610092919061094a565b60405180910390f35b6000600160008373ffffffffffffffffffffffffffffffffffffffff1673ffffffffffffffffffffffffffffffffffffffff168152602001908152602001600020549050919050565b606060006100f1866103bf565b90506000357fffffffff00000000000000000000000000000000000000000000000000000000167bffffffffffffffffffffffffffffffffffffffffffffffffffffffff1916817bffffffffffffffffffffffffffffffffffffffffffffffffffffffff191603610197576040517f08c379a000000000000000000000000000000000000000000000000000000000815260040161018e906109ef565b60405180910390fd5b60006040518060800160405280600160008c73ffffffffffffffffffffffffffffffffffffffff1673ffffffffffffffffffffffffffffffffffffffff1681526020019081526020016000205481526020018a73ffffffffffffffffffffffffffffffffffffffff1681526020018973ffffffffffffffffffffffffffffffffffffffff16815260200188815250905061023489828888886103e2565b610273576040517f08c379a000000000000000000000000000000000000000000000000000000000815260040161026a90610a81565b60405180910390fd5b600160008a73ffffffffffffffffffffffffffffffffffffffff1673ffffffffffffffffffffffffffffffffffffffff16815260200190815260200160002060008154809291906102c390610ad0565b91905055506000808973ffffffffffffffffffffffffffffffffffffffff16898c6040516020016102f5929190610b9c565b6040516020818303038152906040526040516103119190610bc4565b6000604051808303816000865af19150503d806000811461034e576040519150601f19603f3d011682016040523d82523d6000602084013e610353565b606091505b50915091506000151582151503610371576040513d806000833e8082fd5b7f5b557a9dd19c959c831e99f62df0ada0a8dedff9754a57596e351545da0832b48b8b338c6040516103a69493929190610bea565b60405180910390a1809450505050509695505050505050565b6000808251036103d557600060e01b90506103dd565b602082015190505b919050565b60008060016103f86103f3886104f0565b610558565b848787604051600081526020016040526040516104189493929190610c54565b6020604051602081039080840390855afa15801561043a573d6000803e3d6000fd5b505050602060405103519050600073ffffffffffffffffffffffffffffffffffffffff168173ffffffffffffffffffffffffffffffffffffffff16036104b5576040517f08c379a00000000000000000000000000000000000000000000000000000000081526004016104ac90610ce5565b60405180910390fd5b8673ffffffffffffffffffffffffffffffffffffffff168173ffffffffffffffffffffffffffffffffffffffff161491505095945050505050565b6000604051806080016040528060438152602001610dfa60439139805190602001208260000151836020015184606001518051906020012060405160200161053b9493929190610d05565b604051602081830303815290604052805190602001209050919050565b6000610562610591565b82604051602001610574929190610dc2565b604051602081830303815290604052805190602001209050919050565b60008054905090565b6000604051905090565b600080fd5b600080fd5b600073ffffffffffffffffffffffffffffffffffffffff82169050919050565b60006105d9826105ae565b9050919050565b6105e9816105ce565b81146105f457600080fd5b50565b600081359050610606816105e0565b92915050565b600060208284031215610622576106216105a4565b5b6000610630848285016105f7565b91505092915050565b6000819050919050565b61064c81610639565b82525050565b60006020820190506106676000830184610643565b92915050565b600080fd5b600080fd5b6000601f19601f8301169050919050565b7f4e487b7100000000000000000000000000000000000000000000000000000000600052604160045260246000fd5b6106c082610677565b810181811067ffffffffffffffff821117156106df576106de610688565b5b80604052505050565b60006106f261059a565b90506106fe82826106b7565b919050565b600067ffffffffffffffff82111561071e5761071d610688565b5b61072782610677565b9050602081019050919050565b82818337600083830152505050565b600061075661075184610703565b6106e8565b90508281526020810184848401111561077257610771610672565b5b61077d848285610734565b509392505050565b600082601f83011261079a5761079961066d565b5b81356107aa848260208601610743565b91505092915050565b6000819050919050565b6107c6816107b3565b81146107d157600080fd5b50565b6000813590506107e3816107bd565b92915050565b600060ff82169050919050565b6107ff816107e9565b811461080a57600080fd5b50565b60008135905061081c816107f6565b92915050565b60008060008060008060c0878903121561083f5761083e6105a4565b5b600061084d89828a016105f7565b965050602061085e89828a016105f7565b955050604087013567ffffffffffffffff81111561087f5761087e6105a9565b5b61088b89828a01610785565b945050606061089c89828a016107d4565b93505060806108ad89828a016107d4565b92505060a06108be89828a0161080d565b9150509295509295509295565b600081519050919050565b600082825260208201905092915050565b60005b838110156109055780820151818401526020810190506108ea565b60008484015250505050565b600061091c826108cb565b61092681856108d6565b93506109368185602086016108e7565b61093f81610677565b840191505092915050565b600060208201905081810360008301526109648184610911565b905092915050565b600082825260208201905092915050565b7f66756e6374696f6e5369676e61747572652063616e206e6f74206265206f662060008201527f657865637574654d6574615472616e73616374696f6e206d6574686f64000000602082015250565b60006109d9603d8361096c565b91506109e48261097d565b604082019050919050565b60006020820190508181036000830152610a08816109cc565b9050919050565b7f5369676e657220616e64207369676e617475726520646f206e6f74206d61746360008201527f6800000000000000000000000000000000000000000000000000000000000000602082015250565b6000610a6b60218361096c565b9150610a7682610a0f565b604082019050919050565b60006020820190508181036000830152610a9a81610a5e565b9050919050565b7f4e487b7100000000000000000000000000000000000000000000000000000000600052601160045260246000fd5b6000610adb82610639565b91507fffffffffffffffffffffffffffffffffffffffffffffffffffffffffffffffff8203610b0d57610b0c610aa1565b5b600182019050919050565b600081905092915050565b6000610b2e826108cb565b610b388185610b18565b9350610b488185602086016108e7565b80840191505092915050565b60008160601b9050919050565b6000610b6c82610b54565b9050919050565b6000610b7e82610b61565b9050919050565b610b96610b91826105ce565b610b73565b82525050565b6000610ba88285610b23565b9150610bb48284610b85565b6014820191508190509392505050565b6000610bd08284610b23565b915081905092915050565b610be4816105ce565b82525050565b6000608082019050610bff6000830187610bdb565b610c0c6020830186610bdb565b610c196040830185610bdb565b8181036060830152610c2b8184610911565b905095945050505050565b610c3f816107b3565b82525050565b610c4e816107e9565b82525050565b6000608082019050610c696000830187610c36565b610c766020830186610c45565b610c836040830185610c36565b610c906060830184610c36565b95945050505050565b7f496e76616c6964207369676e6174757265000000000000000000000000000000600082015250565b6000610ccf60118361096c565b9150610cda82610c99565b602082019050919050565b60006020820190508181036000830152610cfe81610cc2565b9050919050565b6000608082019050610d1a6000830187610c36565b610d276020830186610643565b610d346040830185610bdb565b610d416060830184610c36565b95945050505050565b600081905092915050565b7f1901000000000000000000000000000000000000000000000000000000000000600082015250565b6000610d8b600283610d4a565b9150610d9682610d55565b600282019050919050565b6000819050919050565b610dbc610db7826107b3565b610da1565b82525050565b6000610dcd82610d7e565b9150610dd98285610dab565b602082019150610de98284610dab565b602082019150819050939250505056fe4d6574615472616e73616374696f6e2875696e74323536206e6f6e63652c616464726573732066726f6d2c62797465732066756e6374696f6e5369676e617475726529a2646970667358221220cbcf5ccb76288128559bd2c2ee4f621742f19acdbabb0fac1225035aa8cf8d6f64736f6c634300081c0033454950373132446f6d61696e28737472696e67206e616d652c737472696e672076657273696f6e2c6164647265737320766572696679696e67436f6e74726163742c75696e7432353620636861696e496429",
  "linkReferences": {},
  "deployedLinkReferences": {}
}