{
  "_format": "hh-sol-artifact-1",
  "contractName": "EIP712MetaTransaction",
  "sourceName": "contracts/EIP712MetaTransaction.sol",
  "abi": [
    {
      "inputs": [
        {
          "internalType": "string",
          "name": "name",
          "type": "string"
        },
        {
          "internalType": "string",
          "name": "version",
          "type": "string"
        }
      ],
      "stateMutability": "nonpayable",
      "type": "constructor"
    },
    {
      "anonymous": false,
      "inputs": [
        {
          "indexed": false,
          "internalType": "address",
          "name": "userAddress",
          "type": "address"
        },
        {
          "indexed": false,
          "internalType": "address",
          "name": "targetAddress",
          "type": "address"
        },
        {
          "indexed": false,
          "internalType": "address",
          "name": "relayerAddress",
          "type": "address"
        },
        {
          "indexed": false,
          "internalType": "bytes",
          "name": "functionSignature",
          "type": "bytes"
        }
      ],
      "name": "MetaTransactionExecuted",
      "type": "event"
    },
    {
      "inputs": [
        {
          "internalType": "address",
          "name": "userAddress",
          "type": "address"
        },
        {
          "internalType": "address",
          "name": "targetContractAddress",
          "type": "address"
        },
        {
          "internalType": "bytes",
          "name": "functionSignature",
          "type": "bytes"
        },
        {
          "internalType": "bytes32",
          "name": "sigR",
          "type": "bytes32"
        },
        {
          "internalType": "bytes32",
          "name": "sigS",
          "type": "bytes32"
        },
        {
          "internalType": "uint8",
          "name": "sigV",
          "type": "uint8"
        }
      ],
      "name": "executeMetaTransaction",
      "outputs": [
        {
          "internalType": "bytes",
          "name": "",
          "type": "bytes"
        }
      ],
      "stateMutability": "payable",
      "type": "function"
    },
    {
      "inputs": [],
      "name": "getName",
      "outputs": [
        {
          "internalType": "string",
          "name": "",
          "type": "string"
        }
      ],
      "stateMutability": "view",
      "type": "function"
    },
    {
      "inputs": [
        {
          "internalType": "address",
          "name": "user",
          "type": "address"
        }
      ],
      "name": "getNonce",
      "outputs": [
        {
          "internalType": "uint256",
          "name": "nonce",
          "type": "uint256"
        }
      ],
      "stateMutability": "view",
      "type": "function"
    },
    {
      "inputs": [],
      "name": "getVersion",
      "outputs": [
        {
          "internalType": "string",
          "name": "",
          "type": "string"
        }
      ],
      "stateMutability": "view",
      "type": "function"
    }
  ],
  "bytecode": "0x608060405234801561001057600080fd5b5060405161171c38038061171c83398181016040528101906100329190610249565b81816040518060800160405280605281526020016116ca605291398051906020012082805190602001208280519060200120306100736100cc60201b60201c565b604051602001610087959493929190610334565b60405160208183030381529060405280519060200120600081905550505081600290816100b4919061059e565b5080600390816100c4919061059e565b505050610670565b600046905090565b6000604051905090565b600080fd5b600080fd5b600080fd5b600080fd5b6000601f19601f8301169050919050565b7f4e487b7100000000000000000000000000000000000000000000000000000000600052604160045260246000fd5b61013b826100f2565b810181811067ffffffffffffffff8211171561015a57610159610103565b5b80604052505050565b600061016d6100d4565b90506101798282610132565b919050565b600067ffffffffffffffff82111561019957610198610103565b5b6101a2826100f2565b9050602081019050919050565b60005b838110156101cd5780820151818401526020810190506101b2565b60008484015250505050565b60006101ec6101e78461017e565b610163565b905082815260208101848484011115610208576102076100ed565b5b6102138482856101af565b509392505050565b600082601f8301126102305761022f6100e8565b5b81516102408482602086016101d9565b91505092915050565b600080604083850312156102605761025f6100de565b5b600083015167ffffffffffffffff81111561027e5761027d6100e3565b5b61028a8582860161021b565b925050602083015167ffffffffffffffff8111156102ab576102aa6100e3565b5b6102b78582860161021b565b9150509250929050565b6000819050919050565b6102d4816102c1565b82525050565b600073ffffffffffffffffffffffffffffffffffffffff82169050919050565b6000610305826102da565b9050919050565b610315816102fa565b82525050565b6000819050919050565b61032e8161031b565b82525050565b600060a08201905061034960008301886102cb565b61035660208301876102cb565b61036360408301866102cb565b610370606083018561030c565b61037d6080830184610325565b9695505050505050565b600081519050919050565b7f4e487b7100000000000000000000000000000000000000000000000000000000600052602260045260246000fd5b600060028204905060018216806103d957607f821691505b6020821081036103ec576103eb610392565b5b50919050565b60008190508160005260206000209050919050565b60006020601f8301049050919050565b600082821b905092915050565b6000600883026104547fffffffffffffffffffffffffffffffffffffffffffffffffffffffffffffffff82610417565b61045e8683610417565b95508019841693508086168417925050509392505050565b6000819050919050565b600061049b6104966104918461031b565b610476565b61031b565b9050919050565b6000819050919050565b6104b583610480565b6104c96104c1826104a2565b848454610424565b825550505050565b600090565b6104de6104d1565b6104e98184846104ac565b505050565b5b8181101561050d576105026000826104d6565b6001810190506104ef565b5050565b601f82111561055257610523816103f2565b61052c84610407565b8101602085101561053b578190505b61054f61054785610407565b8301826104ee565b50505b505050565b600082821c905092915050565b600061057560001984600802610557565b1980831691505092915050565b600061058e8383610564565b9150826002028217905092915050565b6105a782610387565b67ffffffffffffffff8111156105c0576105bf610103565b5b6105ca82546103c1565b6105d5828285610511565b600060209050601f83116001811461060857600084156105f6578287015190505b6106008582610582565b865550610668565b601f198416610616866103f2565b60005b8281101561063e57848901518255600182019150602085019450602081019050610619565b8683101561065b5784890151610657601f891682610564565b8355505b6001600288020188555050505b505050505050565b61104b8061067f6000396000f3fe60806040526004361061003f5760003560e01c80630d8e6e2c1461004457806317d7de7c1461006f5780632d0335ab1461009a578063a9cae653146100d7575b600080fd5b34801561005057600080fd5b50610059610107565b604051610066919061079f565b60405180910390f35b34801561007b57600080fd5b50610084610199565b604051610091919061079f565b60405180910390f35b3480156100a657600080fd5b506100c160048036038101906100bc9190610833565b61022b565b6040516100ce9190610879565b60405180910390f35b6100f160048036038101906100ec9190610a38565b610274565b6040516100fe9190610b36565b60405180910390f35b60606003805461011690610b87565b80601f016020809104026020016040519081016040528092919081815260200182805461014290610b87565b801561018f5780601f106101645761010080835404028352916020019161018f565b820191906000526020600020905b81548152906001019060200180831161017257829003601f168201915b5050505050905090565b6060600280546101a890610b87565b80601f01602080910402602001604051908101604052809291908181526020018280546101d490610b87565b80156102215780601f106101f657610100808354040283529160200191610221565b820191906000526020600020905b81548152906001019060200180831161020457829003601f168201915b5050505050905090565b6000600160008373ffffffffffffffffffffffffffffffffffffffff1673ffffffffffffffffffffffffffffffffffffffff168152602001908152602001600020549050919050565b606060006102818661052e565b90506000357fffffffff00000000000000000000000000000000000000000000000000000000167bffffffffffffffffffffffffffffffffffffffffffffffffffffffff1916817bffffffffffffffffffffffffffffffffffffffffffffffffffffffff191603610327576040517f08c379a000000000000000000000000000000000000000000000000000000000815260040161031e90610c2a565b60405180910390fd5b60006040518060800160405280600160008c73ffffffffffffffffffffffffffffffffffffffff1673ffffffffffffffffffffffffffffffffffffffff1681526020019081526020016000205481526020018a73ffffffffffffffffffffffffffffffffffffffff1681526020018973ffffffffffffffffffffffffffffffffffffffff1681526020018881525090506103c48982888888610551565b610403576040517f08c379a00000000000000000000000000000000000000000000000000000000081526004016103fa90610cbc565b60405180910390fd5b600160008a73ffffffffffffffffffffffffffffffffffffffff1673ffffffffffffffffffffffffffffffffffffffff168152602001908152602001600020600081548092919061045390610d0b565b91905055506000808973ffffffffffffffffffffffffffffffffffffffff16896040516104809190610d8f565b6000604051808303816000865af19150503d80600081146104bd576040519150601f19603f3d011682016040523d82523d6000602084013e6104c2565b606091505b509150915060001515821515036104e0576040513d806000833e8082fd5b7f5b557a9dd19c959c831e99f62df0ada0a8dedff9754a57596e351545da0832b48b8b338c6040516105159493929190610db5565b60405180910390a1809450505050509695505050505050565b60008082510361054457600060e01b905061054c565b602082015190505b919050565b60008060016105676105628861065f565b6106cd565b848787604051600081526020016040526040516105879493929190610e1f565b6020604051602081039080840390855afa1580156105a9573d6000803e3d6000fd5b505050602060405103519050600073ffffffffffffffffffffffffffffffffffffffff168173ffffffffffffffffffffffffffffffffffffffff1603610624576040517f08c379a000000000000000000000000000000000000000000000000000000000815260040161061b90610eb0565b60405180910390fd5b8673ffffffffffffffffffffffffffffffffffffffff168173ffffffffffffffffffffffffffffffffffffffff161491505095945050505050565b6000604051806080016040528060438152602001610fd360439139805190602001208260000151836020015184604001518560600151805190602001206040516020016106b0959493929190610ed0565b604051602081830303815290604052805190602001209050919050565b60006106d7610706565b826040516020016106e9929190610f9b565b604051602081830303815290604052805190602001209050919050565b60008054905090565b600081519050919050565b600082825260208201905092915050565b60005b8381101561074957808201518184015260208101905061072e565b60008484015250505050565b6000601f19601f8301169050919050565b60006107718261070f565b61077b818561071a565b935061078b81856020860161072b565b61079481610755565b840191505092915050565b600060208201905081810360008301526107b98184610766565b905092915050565b6000604051905090565b600080fd5b600080fd5b600073ffffffffffffffffffffffffffffffffffffffff82169050919050565b6000610800826107d5565b9050919050565b610810816107f5565b811461081b57600080fd5b50565b60008135905061082d81610807565b92915050565b600060208284031215610849576108486107cb565b5b60006108578482850161081e565b91505092915050565b6000819050919050565b61087381610860565b82525050565b600060208201905061088e600083018461086a565b92915050565b600080fd5b600080fd5b7f4e487b7100000000000000000000000000000000000000000000000000000000600052604160045260246000fd5b6108d682610755565b810181811067ffffffffffffffff821117156108f5576108f461089e565b5b80604052505050565b60006109086107c1565b905061091482826108cd565b919050565b600067ffffffffffffffff8211156109345761093361089e565b5b61093d82610755565b9050602081019050919050565b82818337600083830152505050565b600061096c61096784610919565b6108fe565b90508281526020810184848401111561098857610987610899565b5b61099384828561094a565b509392505050565b600082601f8301126109b0576109af610894565b5b81356109c0848260208601610959565b91505092915050565b6000819050919050565b6109dc816109c9565b81146109e757600080fd5b50565b6000813590506109f9816109d3565b92915050565b600060ff82169050919050565b610a15816109ff565b8114610a2057600080fd5b50565b600081359050610a3281610a0c565b92915050565b60008060008060008060c08789031215610a5557610a546107cb565b5b6000610a6389828a0161081e565b9650506020610a7489828a0161081e565b955050604087013567ffffffffffffffff811115610a9557610a946107d0565b5b610aa189828a0161099b565b9450506060610ab289828a016109ea565b9350506080610ac389828a016109ea565b92505060a0610ad489828a01610a23565b9150509295509295509295565b600081519050919050565b600082825260208201905092915050565b6000610b0882610ae1565b610b128185610aec565b9350610b2281856020860161072b565b610b2b81610755565b840191505092915050565b60006020820190508181036000830152610b508184610afd565b905092915050565b7f4e487b7100000000000000000000000000000000000000000000000000000000600052602260045260246000fd5b60006002820490506001821680610b9f57607f821691505b602082108103610bb257610bb1610b58565b5b50919050565b7f66756e6374696f6e5369676e61747572652063616e206e6f74206265206f662060008201527f657865637574654d6574615472616e73616374696f6e206d6574686f64000000602082015250565b6000610c14603d8361071a565b9150610c1f82610bb8565b604082019050919050565b60006020820190508181036000830152610c4381610c07565b9050919050565b7f5369676e657220616e64207369676e617475726520646f206e6f74206d61746360008201527f6800000000000000000000000000000000000000000000000000000000000000602082015250565b6000610ca660218361071a565b9150610cb182610c4a565b604082019050919050565b60006020820190508181036000830152610cd581610c99565b9050919050565b7f4e487b7100000000000000000000000000000000000000000000000000000000600052601160045260246000fd5b6000610d1682610860565b91507fffffffffffffffffffffffffffffffffffffffffffffffffffffffffffffffff8203610d4857610d47610cdc565b5b600182019050919050565b600081905092915050565b6000610d6982610ae1565b610d738185610d53565b9350610d8381856020860161072b565b80840191505092915050565b6000610d9b8284610d5e565b915081905092915050565b610daf816107f5565b82525050565b6000608082019050610dca6000830187610da6565b610dd76020830186610da6565b610de46040830185610da6565b8181036060830152610df68184610afd565b905095945050505050565b610e0a816109c9565b82525050565b610e19816109ff565b82525050565b6000608082019050610e346000830187610e01565b610e416020830186610e10565b610e4e6040830185610e01565b610e5b6060830184610e01565b95945050505050565b7f496e76616c6964207369676e6174757265000000000000000000000000000000600082015250565b6000610e9a60118361071a565b9150610ea582610e64565b602082019050919050565b60006020820190508181036000830152610ec981610e8d565b9050919050565b600060a082019050610ee56000830188610e01565b610ef2602083018761086a565b610eff6040830186610da6565b610f0c6060830185610da6565b610f196080830184610e01565b9695505050505050565b600081905092915050565b7f1901000000000000000000000000000000000000000000000000000000000000600082015250565b6000610f64600283610f23565b9150610f6f82610f2e565b600282019050919050565b6000819050919050565b610f95610f90826109c9565b610f7a565b82525050565b6000610fa682610f57565b9150610fb28285610f84565b602082019150610fc28284610f84565b602082019150819050939250505056fe4d6574615472616e73616374696f6e2875696e74323536206e6f6e63652c616464726573732066726f6d2c62797465732066756e6374696f6e5369676e617475726529a2646970667358221220818ac6df0bdde383c26751508a6e9713729196aceb28d51fd3b27125fcc1547364736f6c634300081c0033454950373132446f6d61696e28737472696e67206e616d652c737472696e672076657273696f6e2c6164647265737320766572696679696e67436f6e74726163742c75696e7432353620636861696e496429",
  "linkReferences": {},
  "deployedLinkReferences": {}
}