{
  "_format": "hh-sol-artifact-1",
  "contractName": "EIP712MetaTransaction",
  "sourceName": "contracts/EIP712MetaTransaction.sol",
  "abi": [
    {
      "inputs": [
        {
          "internalType": "string",
          "name": "name",
          "type": "string"
        },
        {
          "internalType": "string",
          "name": "version",
          "type": "string"
        }
      ],
      "stateMutability": "nonpayable",
      "type": "constructor"
    },
    {
      "anonymous": false,
      "inputs": [
        {
          "indexed": false,
          "internalType": "address",
          "name": "userAddress",
          "type": "address"
        },
        {
          "indexed": false,
          "internalType": "address",
          "name": "targetAddress",
          "type": "address"
        },
        {
          "indexed": false,
          "internalType": "address",
          "name": "relayerAddress",
          "type": "address"
        },
        {
          "indexed": false,
          "internalType": "bytes",
          "name": "functionSignature",
          "type": "bytes"
        }
      ],
      "name": "MetaTransactionExecuted",
      "type": "event"
    },
    {
      "inputs": [
        {
          "internalType": "address",
          "name": "userAddress",
          "type": "address"
        },
        {
          "internalType": "address",
          "name": "targetContractAddress",
          "type": "address"
        },
        {
          "internalType": "bytes",
          "name": "functionSignature",
          "type": "bytes"
        },
        {
          "internalType": "bytes32",
          "name": "sigR",
          "type": "bytes32"
        },
        {
          "internalType": "bytes32",
          "name": "sigS",
          "type": "bytes32"
        },
        {
          "internalType": "uint8",
          "name": "sigV",
          "type": "uint8"
        }
      ],
      "name": "executeMetaTransaction",
      "outputs": [
        {
          "internalType": "bytes",
          "name": "",
          "type": "bytes"
        }
      ],
      "stateMutability": "payable",
      "type": "function"
    },
    {
      "inputs": [],
      "name": "getName",
      "outputs": [
        {
          "internalType": "string",
          "name": "",
          "type": "string"
        }
      ],
      "stateMutability": "view",
      "type": "function"
    },
    {
      "inputs": [
        {
          "internalType": "address",
          "name": "user",
          "type": "address"
        }
      ],
      "name": "getNonce",
      "outputs": [
        {
          "internalType": "uint256",
          "name": "nonce",
          "type": "uint256"
        }
      ],
      "stateMutability": "view",
      "type": "function"
    },
    {
      "inputs": [],
      "name": "getVersion",
      "outputs": [
        {
          "internalType": "string",
          "name": "",
          "type": "string"
        }
      ],
      "stateMutability": "view",
      "type": "function"
    }
  ],
  "bytecode": "0x608060405234801561001057600080fd5b5060405161179938038061179983398181016040528101906100329190610249565b8181604051806080016040528060528152602001611747605291398051906020012082805190602001208280519060200120306100736100cc60201b60201c565b604051602001610087959493929190610334565b60405160208183030381529060405280519060200120600081905550505081600290816100b4919061059e565b5080600390816100c4919061059e565b505050610670565b600046905090565b6000604051905090565b600080fd5b600080fd5b600080fd5b600080fd5b6000601f19601f8301169050919050565b7f4e487b7100000000000000000000000000000000000000000000000000000000600052604160045260246000fd5b61013b826100f2565b810181811067ffffffffffffffff8211171561015a57610159610103565b5b80604052505050565b600061016d6100d4565b90506101798282610132565b919050565b600067ffffffffffffffff82111561019957610198610103565b5b6101a2826100f2565b9050602081019050919050565b60005b838110156101cd5780820151818401526020810190506101b2565b60008484015250505050565b60006101ec6101e78461017e565b610163565b905082815260208101848484011115610208576102076100ed565b5b6102138482856101af565b509392505050565b600082601f8301126102305761022f6100e8565b5b81516102408482602086016101d9565b91505092915050565b600080604083850312156102605761025f6100de565b5b600083015167ffffffffffffffff81111561027e5761027d6100e3565b5b61028a8582860161021b565b925050602083015167ffffffffffffffff8111156102ab576102aa6100e3565b5b6102b78582860161021b565b9150509250929050565b6000819050919050565b6102d4816102c1565b82525050565b600073ffffffffffffffffffffffffffffffffffffffff82169050919050565b6000610305826102da565b9050919050565b610315816102fa565b82525050565b6000819050919050565b61032e8161031b565b82525050565b600060a08201905061034960008301886102cb565b61035660208301876102cb565b61036360408301866102cb565b610370606083018561030c565b61037d6080830184610325565b9695505050505050565b600081519050919050565b7f4e487b7100000000000000000000000000000000000000000000000000000000600052602260045260246000fd5b600060028204905060018216806103d957607f821691505b6020821081036103ec576103eb610392565b5b50919050565b60008190508160005260206000209050919050565b60006020601f8301049050919050565b600082821b905092915050565b6000600883026104547fffffffffffffffffffffffffffffffffffffffffffffffffffffffffffffffff82610417565b61045e8683610417565b95508019841693508086168417925050509392505050565b6000819050919050565b600061049b6104966104918461031b565b610476565b61031b565b9050919050565b6000819050919050565b6104b583610480565b6104c96104c1826104a2565b848454610424565b825550505050565b600090565b6104de6104d1565b6104e98184846104ac565b505050565b5b8181101561050d576105026000826104d6565b6001810190506104ef565b5050565b601f82111561055257610523816103f2565b61052c84610407565b8101602085101561053b578190505b61054f61054785610407565b8301826104ee565b50505b505050565b600082821c905092915050565b600061057560001984600802610557565b1980831691505092915050565b600061058e8383610564565b9150826002028217905092915050565b6105a782610387565b67ffffffffffffffff8111156105c0576105bf610103565b5b6105ca82546103c1565b6105d5828285610511565b600060209050601f83116001811461060857600084156105f6578287015190505b6106008582610582565b865550610668565b601f198416610616866103f2565b60005b8281101561063e57848901518255600182019150602085019450602081019050610619565b8683101561065b5784890151610657601f891682610564565b8355505b6001600288020188555050505b505050505050565b6110c88061067f6000396000f3fe60806040526004361061003f5760003560e01c80630d8e6e2c1461004457806317d7de7c1461006f5780632d0335ab1461009a578063a9cae653146100d7575b600080fd5b34801561005057600080fd5b50610059610107565b60405161006691906107ba565b60405180910390f35b34801561007b57600080fd5b50610084610199565b60405161009191906107ba565b60405180910390f35b3480156100a657600080fd5b506100c160048036038101906100bc919061084e565b61022b565b6040516100ce9190610894565b60405180910390f35b6100f160048036038101906100ec9190610a53565b610274565b6040516100fe9190610b51565b60405180910390f35b60606003805461011690610ba2565b80601f016020809104026020016040519081016040528092919081815260200182805461014290610ba2565b801561018f5780601f106101645761010080835404028352916020019161018f565b820191906000526020600020905b81548152906001019060200180831161017257829003601f168201915b5050505050905090565b6060600280546101a890610ba2565b80601f01602080910402602001604051908101604052809291908181526020018280546101d490610ba2565b80156102215780601f106101f657610100808354040283529160200191610221565b820191906000526020600020905b81548152906001019060200180831161020457829003601f168201915b5050505050905090565b6000600160008373ffffffffffffffffffffffffffffffffffffffff1673ffffffffffffffffffffffffffffffffffffffff168152602001908152602001600020549050919050565b606060006102818661054f565b90506000357fffffffff00000000000000000000000000000000000000000000000000000000167bffffffffffffffffffffffffffffffffffffffffffffffffffffffff1916817bffffffffffffffffffffffffffffffffffffffffffffffffffffffff191603610327576040517f08c379a000000000000000000000000000000000000000000000000000000000815260040161031e90610c45565b60405180910390fd5b60006040518060800160405280600160008c73ffffffffffffffffffffffffffffffffffffffff1673ffffffffffffffffffffffffffffffffffffffff1681526020019081526020016000205481526020018a73ffffffffffffffffffffffffffffffffffffffff1681526020018973ffffffffffffffffffffffffffffffffffffffff1681526020018881525090506103c48982888888610572565b610403576040517f08c379a00000000000000000000000000000000000000000000000000000000081526004016103fa90610cd7565b60405180910390fd5b600160008a73ffffffffffffffffffffffffffffffffffffffff1673ffffffffffffffffffffffffffffffffffffffff168152602001908152602001600020600081548092919061045390610d26565b91905055506000808973ffffffffffffffffffffffffffffffffffffffff16898c604051602001610485929190610df2565b6040516020818303038152906040526040516104a19190610e1a565b6000604051808303816000865af19150503d80600081146104de576040519150601f19603f3d011682016040523d82523d6000602084013e6104e3565b606091505b50915091506000151582151503610501576040513d806000833e8082fd5b7f5b557a9dd19c959c831e99f62df0ada0a8dedff9754a57596e351545da0832b48b8b338c6040516105369493929190610e40565b60405180910390a1809450505050509695505050505050565b60008082510361056557600060e01b905061056d565b602082015190505b919050565b600080600161058861058388610680565b6106e8565b848787604051600081526020016040526040516105a89493929190610eaa565b6020604051602081039080840390855afa1580156105ca573d6000803e3d6000fd5b505050602060405103519050600073ffffffffffffffffffffffffffffffffffffffff168173ffffffffffffffffffffffffffffffffffffffff1603610645576040517f08c379a000000000000000000000000000000000000000000000000000000000815260040161063c90610f3b565b60405180910390fd5b8673ffffffffffffffffffffffffffffffffffffffff168173ffffffffffffffffffffffffffffffffffffffff161491505095945050505050565b60006040518060800160405280604381526020016110506043913980519060200120826000015183602001518460600151805190602001206040516020016106cb9493929190610f5b565b604051602081830303815290604052805190602001209050919050565b60006106f2610721565b82604051602001610704929190611018565b604051602081830303815290604052805190602001209050919050565b60008054905090565b600081519050919050565b600082825260208201905092915050565b60005b83811015610764578082015181840152602081019050610749565b60008484015250505050565b6000601f19601f8301169050919050565b600061078c8261072a565b6107968185610735565b93506107a6818560208601610746565b6107af81610770565b840191505092915050565b600060208201905081810360008301526107d48184610781565b905092915050565b6000604051905090565b600080fd5b600080fd5b600073ffffffffffffffffffffffffffffffffffffffff82169050919050565b600061081b826107f0565b9050919050565b61082b81610810565b811461083657600080fd5b50565b60008135905061084881610822565b92915050565b600060208284031215610864576108636107e6565b5b600061087284828501610839565b91505092915050565b6000819050919050565b61088e8161087b565b82525050565b60006020820190506108a96000830184610885565b92915050565b600080fd5b600080fd5b7f4e487b7100000000000000000000000000000000000000000000000000000000600052604160045260246000fd5b6108f182610770565b810181811067ffffffffffffffff821117156109105761090f6108b9565b5b80604052505050565b60006109236107dc565b905061092f82826108e8565b919050565b600067ffffffffffffffff82111561094f5761094e6108b9565b5b61095882610770565b9050602081019050919050565b82818337600083830152505050565b600061098761098284610934565b610919565b9050828152602081018484840111156109a3576109a26108b4565b5b6109ae848285610965565b509392505050565b600082601f8301126109cb576109ca6108af565b5b81356109db848260208601610974565b91505092915050565b6000819050919050565b6109f7816109e4565b8114610a0257600080fd5b50565b600081359050610a14816109ee565b92915050565b600060ff82169050919050565b610a3081610a1a565b8114610a3b57600080fd5b50565b600081359050610a4d81610a27565b92915050565b60008060008060008060c08789031215610a7057610a6f6107e6565b5b6000610a7e89828a01610839565b9650506020610a8f89828a01610839565b955050604087013567ffffffffffffffff811115610ab057610aaf6107eb565b5b610abc89828a016109b6565b9450506060610acd89828a01610a05565b9350506080610ade89828a01610a05565b92505060a0610aef89828a01610a3e565b9150509295509295509295565b600081519050919050565b600082825260208201905092915050565b6000610b2382610afc565b610b2d8185610b07565b9350610b3d818560208601610746565b610b4681610770565b840191505092915050565b60006020820190508181036000830152610b6b8184610b18565b905092915050565b7f4e487b7100000000000000000000000000000000000000000000000000000000600052602260045260246000fd5b60006002820490506001821680610bba57607f821691505b602082108103610bcd57610bcc610b73565b5b50919050565b7f66756e6374696f6e5369676e61747572652063616e206e6f74206265206f662060008201527f657865637574654d6574615472616e73616374696f6e206d6574686f64000000602082015250565b6000610c2f603d83610735565b9150610c3a82610bd3565b604082019050919050565b60006020820190508181036000830152610c5e81610c22565b9050919050565b7f5369676e657220616e64207369676e617475726520646f206e6f74206d61746360008201527f6800000000000000000000000000000000000000000000000000000000000000602082015250565b6000610cc1602183610735565b9150610ccc82610c65565b604082019050919050565b60006020820190508181036000830152610cf081610cb4565b9050919050565b7f4e487b7100000000000000000000000000000000000000000000000000000000600052601160045260246000fd5b6000610d318261087b565b91507fffffffffffffffffffffffffffffffffffffffffffffffffffffffffffffffff8203610d6357610d62610cf7565b5b600182019050919050565b600081905092915050565b6000610d8482610afc565b610d8e8185610d6e565b9350610d9e818560208601610746565b80840191505092915050565b60008160601b9050919050565b6000610dc282610daa565b9050919050565b6000610dd482610db7565b9050919050565b610dec610de782610810565b610dc9565b82525050565b6000610dfe8285610d79565b9150610e0a8284610ddb565b6014820191508190509392505050565b6000610e268284610d79565b915081905092915050565b610e3a81610810565b82525050565b6000608082019050610e556000830187610e31565b610e626020830186610e31565b610e6f6040830185610e31565b8181036060830152610e818184610b18565b905095945050505050565b610e95816109e4565b82525050565b610ea481610a1a565b82525050565b6000608082019050610ebf6000830187610e8c565b610ecc6020830186610e9b565b610ed96040830185610e8c565b610ee66060830184610e8c565b95945050505050565b7f496e76616c6964207369676e6174757265000000000000000000000000000000600082015250565b6000610f25601183610735565b9150610f3082610eef565b602082019050919050565b60006020820190508181036000830152610f5481610f18565b9050919050565b6000608082019050610f706000830187610e8c565b610f7d6020830186610885565b610f8a6040830185610e31565b610f976060830184610e8c565b95945050505050565b600081905092915050565b7f1901000000000000000000000000000000000000000000000000000000000000600082015250565b6000610fe1600283610fa0565b9150610fec82610fab565b600282019050919050565b6000819050919050565b61101261100d826109e4565b610ff7565b82525050565b600061102382610fd4565b915061102f8285611001565b60208201915061103f8284611001565b602082019150819050939250505056fe4d6574615472616e73616374696f6e2875696e74323536206e6f6e63652c616464726573732066726f6d2c62797465732066756e6374696f6e5369676e617475726529a2646970667358221220bb30f5002e3aa55d19b404e22957176da615c579b4df5e2026fc9a6b64382e3564736f6c634300081c0033454950373132446f6d61696e28737472696e67206e616d652c737472696e672076657273696f6e2c6164647265737320766572696679696e67436f6e74726163742c75696e7432353620636861696e496429",
  "linkReferences": {},
  "deployedLinkReferences": {}
}